:020000040800F2
:1000000090040020390100082F120008691100082F
:100010002D120008C9010008BF16000800000000EA
:10002000000000000000000000000000D5120008E1
:10003000CB0100080000000051120008D712000890
:100040005301000853010008530100085301000840
:100050005301000853010008530100085301000830
:100060005301000853010008530100085301000820
:100070005301000853010008530100085301000810
:100080005301000853010008530100085301000800
:1000900053010008530100085301000853010008F0
:1000A00053010008530100085301000853010008E0
:1000B00053010008530100085301000853010008D0
:1000C00053010008530100085301000853010008C0
:1000D00053010008530100085301000853010008B0
:1000E00053010008530100085301000853010008A0
:1000F00053010008000000005301000853010008EC
:10010000530100085301000853010008530100087F
:1001100053010008530100085301000800000000CB
:1001200053010008DFF80CD000F03CF8004800470D
:10013000ED17000890040020064880470648004755
:10014000FEE7FEE7FEE7FEE7FEE7FEE7FEE7FEE787
:10015000FEE7FEE73D1300082501000840EA010321
:100160009B0703D009E008C9121F08C0042AFAD26D
:1001700003E011F8013B00F8013B521EF9D2704731
:10018000D2B201E000F8012B491EFBD270470022D9
:10019000F6E710B513460A4604461946FFF7F0FF86
:1001A000204610BD064C074D06E0E06840F0010314
:1001B00094E8070098471034AC42F6D3FFF7B6FF37
:1001C0005C1900087C190008FEE7704731B500F0A3
:1001D000E7F8044600F0E4F80099001B8842F9D3E0
:1001E00038BD00002DE9F84FDFF880B100234FF053
:1001F000010C4FF0030A4FF00F090BF1040EAEE0B3
:100200000CFA03F614EA060270D04C68022C01D0F6
:10021000122C11D1DC0800EB84073C6A5D07ED0E5F
:1002200009FA05F824EA0804D1F8108008FA05F85C
:1002300048EA0408C7F8208007685D0091F8048048
:100240000AFA05F408F00308A74308FA05F848EA93
:100250000708C0F800804F68012F05D0022F03D097
:10026000112F01D0122F11D18768D1F80C80A7432C
:1002700008FA05F848EA0708C0F808804768B74355
:100280000E79C6F300169E403E434660C668A643FC
:100290008C68AC403443C4604C68E4005ED5344C98
:1002A000256845F001052560246823F0030504F066
:1002B000010400942F4C2E19B4689D072F0F09FAE2
:1002C00007F5AC432C4DA84201D100251FE02B4D72
:1002D000A84201D101251AE0294DA84201D10225E9
:1002E00015E0284DA84202D1032510E036E0264D46
:1002F000A84201D104250AE0244DA84201D10525D8
:1003000005E0234DA84201D1062500E00725BD40A8
:100310002543B560DBF800405D464E689443F60324
:1003200000D514432C60DEF8004075464E689443B7
:10033000B60300D514432C600C4D08352C684E686C
:100340009443F60200D514432C60084D0C352C68FC
:100350004E689443B60200D514432C605B1C0A68B7
:100360001446DA407FF44CAFBDE8F88F000401403A
:10037000203802400000014000000240000402401A
:1003800000080240000C024000100240001402402D
:10039000001802400AB1816170470904FBE70000C0
:1003A0000148006870470000000000200248016812
:1003B000491C0160704700000000002010B50320B8
:1003C00000F05EF8002000F005F800F017F80020BB
:1003D00010BD000010B5044607484FF47A7100685C
:1003E000B0FBF1F000F066FD00222146501E00F047
:1003F00027F8002010BD0000040000200F4882B044
:10040000016841F000410160016801F00041009184
:10041000011F0A6842F001020A60096801F0010147
:100420000091016841F080510160006800F0805047
:100430000090072002B000F023B8000024380240EA
:10044000F0B40E4B1B680C46C3F30223C3F107053F
:10045000042D00D90425191D072901D2002300E02D
:10046000DB1E012606FA05F1491E214099409E40F7
:10047000761E16403143F0BC00F0DABE0CED00E011
:10048000064900F0070208684FF6FF03184040EAEB
:100490000220034A10430860704700000CED00E0A2
:1004A0000000FA052DE9F047DFF8BC8105460E464D
:1004B000D8F8000000F00100B04214D2012E05D19E
:1004C000D8F8001041F00401C8F80010D8F8001066
:1004D00021F001013143C8F80010D8F8000000F005
:1004E0000100B04271D12878604C800705D52068A2
:1004F000A96820F0F000084320602878C00771D078
:100500005A4A5A4B69680120083A2C33022910D004
:1005100003292ED001292FD05FEA402797FAA7FCA4
:10052000BCFA8CFC4CF0200C5FEA5C1C04D0126816
:1005300003E04FF40037F1E71A6897FAA7F3B3FA2C
:1005400083F303F01F039840024262D0206820F03A
:10055000030008432060FFF723FF6968074641F264
:100560008830022910D003291CD00129814626D0C9
:1005700034E04FF00077D1E70227CFE7FFF710FF15
:10058000C11B494501D926E081462068C0F381009E
:100590000228F3D126E000BFFFF702FFC11B494547
:1005A00001D918E081462068C0F381000328F3D107
:1005B00018E000BFFFF7F4FEC11B49450BD82068C7
:1005C000C0F381000128F5D10CE022E0FFF7E8FE3E
:1005D000C11B494502D90320BDE8F087206810F00F
:1005E0000C0FF3D1D8F80010404601F00101B142E0
:1005F00011D9012E03D1016841F0040101600168A5
:1006000021F0010131430160006800F00100B042B7
:1006100001D00120E0E72878400705D52068E96887
:1006200020F4E060084320602878000706D52068A1
:10063000296920F4605040EAC100206000F04CF8C5
:100640002168F02292FAA2F201F0F001B2FA82F2ED
:10065000D140074A515CC840064908600020FFF7B6
:10066000B9FE0020B8E70000003C02400838024014
:100670004119000804000020084809490068096879
:100680004FF4E06292FAA2F201F4E061B2FA82F26F
:10069000D140044A515CC84070470000040000206B
:1006A00008380240511900080848094900680968DB
:1006B0004FF4605292FAA2F201F46051B2FA82F25F
:1006C000D140044A515CC84070470000040000203B
:1006D00008380240511900081E4A116801F00C0048
:1006E000042813D0082813D00C2813D0101F00683A
:1006F00000F460414FF4604090FAA0F0B0FA80F04E
:10070000C1404FF40040491C884070471248704770
:10071000124870474FF4701393FAA3F301F470106A
:10072000B3FA83F3D8400E4B01F440011268185C11
:100730004FF4400393FAA3F3B3FA83F3D940491C6F
:10074000D20301D5054A00E0034A5043B0FBF1F063
:1007500070470000083802400024F40000127A00BC
:10076000381900082DE9F84F07460078FB4EFC4D7C
:10077000C0074FF0010428D0F848083001684FF452
:100780000038C1F38101022907D00168C1F381015A
:1007900003291BD10068C00318D598FAA8F0B0FA55
:1007A00080F040F02000400901D0306800E0286867
:1007B00098FAA8F1B1FA81F101F01F0104FA01F1F0
:1007C00008425CD0786800287BD058E0786801281F
:1007D0000AD008B1052811D0306820F4803030608C
:1007E000306820F4802002E0306840F480303060CF
:1007F000786828B3FFF7D4FD81460BE0306840F4F9
:1008000080203060F0E700BFFFF7CAFDA0EB0900D1
:10081000642872D898FAA8F0B0FA80F040F020006E
:10082000400901D0306800E0286898FAA8F1B1FAD0
:1008300081F101F01F0104FA01F10842E4D01EE049
:10084000FFF7AEFD814605E0FFF7AAFDA0EB09002A
:100850006428DED898FAA8F0B0FA80F040F02000C2
:10086000400901D0306800E0286898FAA8F1B1FA90
:1008700081F101F01F0104FA01F10842E4D1387856
:10088000DFF8E08280074FF0000B4FF002095FD5E0
:10089000B24808300168C1F38101012907D001681D
:1008A000C1F3810103291CD10068C00319D499FA4E
:1008B000A9F0B0FA80F040F02000400902D0306882
:1008C00001E086E0286899FAA9F1B1FA81F101F016
:1008D0001F0104FA01F108422BD0F868012878D1F1
:1008E00027E0F868A8B394FAA4F0B0FA80F048F8CA
:1008F0002040FFF755FD824606E066E1FFF750FD18
:10090000A0EB0A00022884D899FAA9F1B1FA81F182
:1009100041F02001490901D0316800E0296899FAC5
:10092000A9F0B0FA80F000F01F0004FA00F00142D4
:10093000E4D08A48001D01684FF4F85393FAA3F3FA
:100940003A69B3FA83F321F4F8519A4011430160F4
:1009500025E0FFE794FAA4F1B1FA81F148F821B05B
:10096000FFF71EFD824605E0FFF71AFDA0EB0A0027
:100970000228C8D899FAA9F0B0FA80F040F0200017
:10098000400901D0306800E0286899FAA9F1B1FA6D
:1009900081F101F01F0104FA01F10842E4D1387835
:1009A0004FF4007AC0067CD56C480830006810F01F
:1009B0000C0F0FD0B9694FF48070002972D090FAF3
:1009C000A0F0B0FA80F048F82040FFF7E9FC009072
:1009D0007EE087E09AFAAAF0B0FA80F040F02000BA
:1009E000400901D0306800E028689AFAAAF1B1FA0B
:1009F00081F101F01F0104FA01F1084202D0B86947
:100A000000286FD05548396A001D006800F4604026
:100A100081421AD9084600F01DFC002862D14F48D7
:100A2000001D01683A6A21F46041114301600168C8
:100A30004FF07F4393FAA3F3FA69B3FA83F321F0FB
:100A40007F419A401143016018E04448001D02684C
:100A500022F460420A43026001684FF07F4393FA38
:100A6000A3F3FA69B3FA83F321F07F419A4011436B
:100A70000160386A00F0EEFB0028CFD14FF46041EE
:100A800091FAA1F1386AB1FA81F1C8404FF40041FE
:100A9000401C8140314808300068F02200F0F0002E
:100AA00001E070E040E092FAA2F2B2FA82F2D040A5
:100AB0002D4A105CC1402D4801600020FFF78AFCE0
:100AC00061E000BFFFF76CFC0099401A02287CD857
:100AD0009AFAAAF0B0FA80F040F02000400902D063
:100AE000306801E0BCE128689AFAAAF1B1FA81F114
:100AF00001F01F0104FA01F10842E3D01748001D7C
:100B000001683A6A21F460411143016001684FF0C5
:100B10007F4393FAA3F3FA69B3FA83F321F07F4199
:100B20009A40114301602EE090FAA0F0B0FA80F0F4
:100B300048F820B0FFF734FC009005E0FFF730FCE8
:100B40000099401A0228C2D89AFAAAF0B0FA80F0A6
:100B500040F0200040090BD030680AE00038024025
:100B600034380240000047424119000804000020C8
:100B700028689AFAAAF1B1FA81F101F01F0104FA8A
:100B800001F10842DAD13878000753D5786948B3C3
:100B900094FAA4F0B0FA80F008EB8000C0F8804628
:100BA000FFF7FEFB009005E0FFF7FAFB0099401A03
:100BB00002288CD899FAA9F0B0FA80F040F04000F1
:100BC000B4EB501F02D1306801E08EE0286899FA3A
:100BD000A9F1B1FA81F101F01F0104FA01F210420A
:100BE000E2D027E094FAA4F1B1FA81F108EB810197
:100BF000C1F880B6FFF7D4FB009005E0FFF7D0FB0B
:100C00000099401A022870D899FAA9F0B0FA80F039
:100C100040F04000B4EB501F01D1306800E028687C
:100C200099FAA9F1B1FA81F101F01F0104FA01F278
:100C30001042E3D1387840077BD59B484FF000093C
:100C40000068C0000AD49848016841F080510160F2
:100C500000684FF0010900F080500090934801684F
:100C6000C90511D4016841F480710160FFF798FB58
:100C7000009005E0FFF794FB0099401A642834D8EF
:100C80008A480068C005F5D5B86801280AD008B1BF
:100C9000052811D0286820F480702860286820F486
:100CA000806002E0286840F480702860B86848B32B
:100CB000FFF776FB00900DE0286840F48060286024
:100CC000F0E700BFFFF76CFB0099411A41F2883052
:100CD00081420AD89AFAAAF0B0FA80F040F04000B7
:100CE000B4EB501F02D1306801E095E028689AFA11
:100CF000AAF1B1FA81F101F01F0104FA01F21042E8
:100D0000E0D022E0FFF74CFB009007E0FFF748FB44
:100D10000099411A41F2883081427DD89AFAAAF0AE
:100D2000B0FA80F040F04000B4EB501F02D13068C0
:100D300001E012E028689AFAAAF1B1FA81F101F013
:100D40001F0104FA01F21042E0D1B9F1000F04D002
:100D50005548016821F080510160786AE8B3DFF8F6
:100D60004891A9F11C09D9F80010C1F381010329A8
:100D700076D002284FF080714FF0007A58460BD0A1
:100D800091FAA1F1B1FA81F148F82100FFF708FBCF
:100D9000B046074656466DE04FF0807191FAA1F1DA
:100DA000B1FA81F18A0042495050FFF7F9FAB3468F
:100DB0008046564606E000BFFFF7F2FAA0EB0800B7
:100DC000022854D896FAA6F0B0FA80F040F020003D
:100DD000400903D0DBF8000001E061E0286896FAE2
:100DE000A6F1B1FA81F101F01F0104FA01F1084204
:100DF000E2D1D7E90A103A6BD9F80030014323F465
:100E00007D031A431143C9F800104FF0807090FA27
:100E1000A0F0B0FA80F000E029E0810024480C50F6
:100E2000FFF7BEFA074604E0FFF7BAFAC01B022834
:100E30001DD896FAA6F0B0FA80F040F020004009E4
:100E400002D0DBF8000000E0286896FAA6F1B1FABB
:100E500081F101F01F0104FA01F10842E4D01FE022
:100E600020E000BFFFF79CFAC01B022802D9032034
:100E7000BDE8F88F96FAA6F0B0FA80F040F02000B6
:100E8000400902D0D8F8000000E0286896FAA6F1E0
:100E9000B1FA81F101F01F0104FA01F10842E1D138
:100EA0000020E5E70120E3E724380240007000401D
:100EB0000000474210B5401EB0F1807F01D30120F1
:100EC00010BD4FF0E02460610F21601700F0B0F911
:100ED0000020A06107202061002010BD70B5040033
:100EE00004D094F83900002510B106E0012070BD4F
:100EF00084F83850204600F021F8022084F83900A8
:100F00002068C16821F40051C160204600F03EFA1B
:100F10002068016921F4904101612068416921F054
:100F20002A0141612068C16841F40051C160E56354
:100F3000012084F83900002070BD0000F0B587B0B2
:100F4000044614216846FFF722F91D4F22681D4907
:100F500002230124032507261B48BA4212D10A1D89
:100F6000176847F480471760126802F480420592C0
:100F70000A6842F001020A60096801F00101059166
:100F8000690215E0114FBA4217D10E4A08321768AC
:100F900047F400371760126802F4003205920A68BD
:100FA00042F001020A60096801F0010105910C217B
:100FB0008DE87A006946FFF715F907B0F0BD00002B
:100FC000003801401C38024000000240004400404C
:100FD0002DE9F047044690F8390099460D4601285E
:100FE00001D0122858D12DB322B394F8380001282B
:100FF00052D0012684F838600027E76394F839005E
:1010000012281AD05FF0220084F83900A285E28508
:101010004FF48058E08D4B46401EE085A0684FF0AD
:10102000000240454FF02001204616D100F0FEFAA4
:10103000B0B904E00120BDE8F0873220E4E7206980
:1010400000282068406803D0C1B225F8011B12E0D7
:10105000C0F3080125F8021B0DE000F0E7FA08B123
:101060000320E8E7206900282068406801D000F0EC
:101070007F0005F8010BE08D0028CBD194F83900F2
:10108000322805D084F8396084F838700020D2E71F
:10109000122084F83900F7E70220CCE72DE9F04769
:1010A000044690F8390099460D46012801D02228BF
:1010B00058D12DB322B394F83800012852D001261C
:1010C00084F838600027E76394F8390022281AD0A2
:1010D0005FF0120084F83900A284E2844FF4805853
:1010E000E08C4B46401EE084A0684FF00002404573
:1010F0004FF08001204613D100F098FA08BB04E0BD
:101100000120BDE8F0873220E4E728882168C0F399
:1011100008004860206908B16D1C08E0AD1C06E0BD
:1011200000F084FA68B9216815F8010B4860E08C7A
:101130000028D5D14B4600224021204600F076FA07
:1011400008B10320DDE794F83900322806D084F88E
:10115000396000BF84F838700020D2E7222084F87C
:101160003900F7E70220CCE7FEE700002DE9F04167
:1011700086B014216846FFF70AF82748016841F055
:1011800004010160016801F004010591016841F06A
:1011900020010160016801F020010591016841F022
:1011A00001010160016801F001010591016841F050
:1011B000020101600068194F00F002000590002252
:1011C00020213846FFF7E6F8DFF85480BE150022EC
:1011D00031464046FFF7DEF87001009011480024C8
:1011E000CDE9010469461048FEF7FCFF202000907D
:1011F0000125CDE90154694638460394FEF7F2FF14
:101200000096CDE90154694640460394FEF7EAFF93
:1012100006B0BDE8F08100001C380240000002402A
:10122000000402400000111000080240FEE7704771
:101230000907090E002806DA00F00F0000F1E0208F
:1012400080F8141D704700F1E02080F8001470470A
:101250007047000038B51C49002309681B4A11F08B
:10126000F00F23D118491C310C68E500184C03D548
:10127000216801F4C0540EE00D6845F080550D6002
:101280000D6805F08055009524680D6804F4C0547D
:1012900025F080550D60B4F5C05F07D1B0F5404F23
:1012A00004D11068012340F004001060106820F0A1
:1012B000010018431060106800F00100984201D04E
:1012C000012038BD002038BD08380240003C0240F3
:1012D000007000407047FFF769B8000010B592B089
:1012E00034216846FEF753FF14210DA8FEF74FFF87
:1012F0001148016821F4C05141F4006101600121ED
:10130000039102201021009000240491CDE90904EA
:1013100080040B9000010C906846FFF723FA0F2021
:101320000D900320CDE90E04109401210DA8119415
:10133000FFF7B8F812B010BD007000400F48016808
:1013400041F4807101600D4908310A680C4B1A4064
:101350000A6002680B4B1A400260026822F4802285
:101360000260086820F47D0008600020091D086004
:1013700005494FF0006008607047000000380240E7
:101380000CC0FF88FEFFFEEE08ED00E02DE9F04105
:10139000044600680169E26821F44051114301618B
:1013A0002169A068E2690843616911430843216823
:1013B000CA6849F20C639A430243CA6020684169D3
:1013C000A26921F4407111434161E1696425B1F5DD
:1013D000004F954821684FF032083DD081427AD1C4
:1013E000FFF762F900EBC00101EB001061688900B2
:1013F000B0FBF1F6FFF758F900EBC00101EB00106C
:1014000061688900B0FBF1F0B0FBF5F06FF01801F6
:10141000484306EB800108EB0110B0FBF5F000F04B
:10142000F006FFF741F900EBC00101EB0010616825
:101430008900B0FBF1F0B0FBF5F006EB0016FFF70A
:1014400033F900EBC00101EB001061688900B0FBCB
:10145000F1F7FFF729F9D0E081423DD1FFF724F9F8
:1014600000EBC00101EB001061684900B0FBF1F036
:10147000B0FBF5F00601FFF717F900EBC00101EB37
:10148000001061684900B0FBF1F7FFF70DF900EBC0
:10149000C00101EB001061684900B0FBF1F0B0FB46
:1014A000F5F06FF01801484307EB800108EBC1002D
:1014B000B0FBF5F000F0F80006EB4006FFF7F4F89B
:1014C00000EBC00101EB001061684900B0FBF1F7CF
:1014D000FFF7EAF83CE055E0FFF7CEF800EBC0017B
:1014E00001EB001061684900B0FBF1F0B0FBF5F0D2
:1014F0000601FFF7C1F800EBC00101EB00106168C5
:101500004900B0FBF1F7FFF7B7F800EBC00101EBC2
:10151000001061684900B0FBF1F0B0FBF5F06FF02E
:101520001801484307EB800108EBC100B0FBF5F060
:1015300000F0F80006EB4006FFF79EF800EBC00154
:1015400001EB001061684900B0FBF1F7FFF794F878
:1015500000EBC00101EB001061684900B0FBF1F045
:10156000B0FBF5F06FF01801484307EB800108EB82
:10157000C100B0FBF5F000F007002168304488603E
:10158000BDE8F081FFF778F800EBC00101EB001037
:1015900061688900B0FBF1F6FFF76EF800EBC0015F
:1015A00001EB001061688900B0FBF1F0B0FBF5F0D1
:1015B0006FF01801484306EB800108EB0110B0FB07
:1015C000F5F000F0F006FFF757F800EBC00101EB73
:1015D000001061688900B0FBF1F0B0FBF5F006EB9C
:1015E0000016FFF749F800EBC00101EB001061683D
:1015F0008900B0FBF1F7FFF73FF800EBC00101EB0A
:10160000001061688900B0FBF1F0B0FBF5F06FF0FD
:101610001801484307EB800108EB0110B0FBF5F01F
:1016200000F00F00A9E70000003801402DE9F04765
:101630001D4690460E460446FEF7B2FE07465FEA98
:1016400008004FF000094FF0010808D030E0681C96
:1016500005D095B1FEF7A4FEC01BA8420DD82068A6
:10166000006836EA0000F2D127E0681C20D025B1DE
:10167000FEF796FEC01BA8421AD92068C16821F067
:101680008001C1602068C16821F02001C16020682C
:10169000C16821F48071C1602068416921F00101B5
:1016A000416184F8398084F838900320BDE8F087E0
:1016B0002068006836EA0000D7D00020F6E7FEE791
:1016C0000FB4054B10B503A9044A029800F017F8AF
:1016D00010BC5DF814FB0000D517000808000020BE
:1016E00002E008C8121F08C1002AFAD170477047EB
:1016F000002001E001C1121F002AFBD170472DE933
:10170000F84F9946924688460546002706E0252868
:101710000AD051464A4690476D1C7F1C2878002805
:10172000F5D13846BDE8F88F002315F8011F18469B
:101730002E2915D115F8011F04232A290DD06FF089
:101740002F022978A1F13004092C09D800EB800080
:1017500002EB400008446D1CF3E758F8040B6D1CC5
:101760002A78002ADDD0632A07D0732A0FD01046CA
:1017700051464A4690477F1C2AE018F8042B8DF802
:10178000002000218DF801106E46012103E058F879
:10179000046B4FF0FF315A074FF0000401D409E009
:1017A000641C84420BDA8C42FADB325D002AF7D1EA
:1017B00005E0641C8C42FCDB305D0028F9D1274435
:1017C00004E016F8010B51464A469047641EF8D2D1
:1017D0006D1CA3E713B54FF6FF730122694602485B
:1017E000FFF75CFC00981CBD4C000020B4B0FEF775
:1017F000E5FDFFF773FDFFF7B9FC2B4829490024ED
:1018000001604FF4E131C0E901140C25C460C0E966
:1018100004458461C461FFF761FB234823494038D4
:1018200001604FF41641C0E90114C460C0E90445E9
:101830008461C461FFF752FB1DA0FFF741FF6422E2
:101840001F4919A8FEF78AFC002050216D46295433
:10185000401C0A28FBDB012211021A48FEF79AFD00
:101860004FF6FF764FF47A770F483346042219A9D2
:101870004038FFF713FC3846FEF7A8FC0A48FF2360
:10188000042269464038FFF7A3FB00240EA0295D1F
:10189000FFF716FF641C0A2CF8DB0DA0FFF710FF02
:1018A000E2E70000004400404C0000200038014006
:1018B000494E49542046494E4953480A0D000000FC
:1018C000D418000800040240733D25630D0A00008F
:1018D000656E640041540D0A000000000000000025
:1018E00000000000000000000000000000000000F8
:1018F00000000000000000000000000000000000E8
:1019000000000000000000000000000000000000D7
:1019100000000000000000000000000000000000C7
:1019200000000000000000000000000000000000B7
:101930000000000000000000030406080C1018203E
:101940003000000000000000000102030406070848
:101950000900000000010203040000007C190008D7
:10196000000000200C000000E016000888190008A4
:101970000C00002084040000F016000800000000A5
:0819800068FF1F0000000000D9
:0400000508000125C9
:00000001FF
